:020000002028B6
:100008007E1480314E01161E0A280B2813280C1E58
:100018000E280F2813288031ED2080311E28961EC7
:10002800162817281E288C1E1A281B281E288031DF
:10003800C42080317E1009002128F001F101F2016D
:10004800F301F4017E10400129288031E02080313D
:100058008B170B179830F9000030FA008031FD201B
:100068008031F630F9000030FA0081310221803108
:1000780081310C2180317408031D43284428492804
:1000880040010C1A48284928672840018E184D2835
:100098004E2867289816181501307102F530031993
:1000A8007002031C582859283F2803101A1C0314EF
:1000B80003185F28622840011A14642840011A10A6
:1000C800F001F1013F28981218118E186C286D283C
:1000D8006F281A143F281A103F2820284001980139
:1000E8009A011B3092003E30940029307E01CE00E8
:1000F8002730B800B9010630CF00BA01D001373037
:10010800BB003F30D1003F30BC003F30D20055111A
:10011800541153151730F9000130FA0081310221CA
:1001280080314E01161608000130F2070030F33D09
:100138000130F0070030F13D74080319A428A52800
:10014800AF2813307302893003197202031CAD28DB
:10015800AE28AF28F401080050304B019F00F93059
:100168009D009C014E018C1296161630F900013044
:10017800FA008031FD20803180304B019E0008005C
:100188004E018C12750876040319CB28CC28D12887
:1001980076088A0075080A00803108007708780414
:1001A8000319D728D828DD2878088A0077080A0094
:1001B80080317E01551108008031722080318131F3
:1001C8000721803181310F2180318031B020803189
:1001D80008007E01551DF128F228F5288031D2202B
:1001E80080310800F401F40AF201F301F001F10191
:1001F80008007A08F6007908F50008007A08F8007F
:100208007908F70008005101910193019201080053
:100218004B019E17080050018C010800F43401348A
:080228008834133408000800BB
:020000040001F9
:08000000FF3FFF3FFF3FFF3F00
:0A000E00ED3F273FFF3FFF3FFF3F9C
:00000001FF
